{
  "contractName": "CartallosPures",
  "abi": [
    {
      "inputs": [],
      "stateMutability": "nonpayable",
      "type": "constructor"
    },
    {
      "anonymous": false,
      "inputs": [
        {
          "indexed": true,
          "internalType": "address",
          "name": "owner",
          "type": "address"
        },
        {
          "indexed": true,
          "internalType": "address",
          "name": "spender",
          "type": "address"
        },
        {
          "indexed": false,
          "internalType": "uint256",
          "name": "value",
          "type": "uint256"
        }
      ],
      "name": "Approval",
      "type": "event"
    },
    {
      "anonymous": false,
      "inputs": [
        {
          "indexed": true,
          "internalType": "address",
          "name": "previousOwner",
          "type": "address"
        },
        {
          "indexed": true,
          "internalType": "address",
          "name": "newOwner",
          "type": "address"
        }
      ],
      "name": "OwnershipTransferred",
      "type": "event"
    },
    {
      "anonymous": false,
      "inputs": [
        {
          "indexed": true,
          "internalType": "address",
          "name": "from",
          "type": "address"
        },
        {
          "indexed": true,
          "internalType": "address",
          "name": "to",
          "type": "address"
        },
        {
          "indexed": false,
          "internalType": "uint256",
          "name": "value",
          "type": "uint256"
        }
      ],
      "name": "Transfer",
      "type": "event"
    },
    {
      "inputs": [
        {
          "internalType": "address",
          "name": "owner",
          "type": "address"
        },
        {
          "internalType": "address",
          "name": "spender",
          "type": "address"
        }
      ],
      "name": "allowance",
      "outputs": [
        {
          "internalType": "uint256",
          "name": "",
          "type": "uint256"
        }
      ],
      "stateMutability": "view",
      "type": "function",
      "constant": true
    },
    {
      "inputs": [
        {
          "internalType": "address",
          "name": "spender",
          "type": "address"
        },
        {
          "internalType": "uint256",
          "name": "amount",
          "type": "uint256"
        }
      ],
      "name": "approve",
      "outputs": [
        {
          "internalType": "bool",
          "name": "",
          "type": "bool"
        }
      ],
      "stateMutability": "nonpayable",
      "type": "function"
    },
    {
      "inputs": [
        {
          "internalType": "address",
          "name": "account",
          "type": "address"
        }
      ],
      "name": "balanceOf",
      "outputs": [
        {
          "internalType": "uint256",
          "name": "",
          "type": "uint256"
        }
      ],
      "stateMutability": "view",
      "type": "function",
      "constant": true
    },
    {
      "inputs": [],
      "name": "decimals",
      "outputs": [
        {
          "internalType": "uint8",
          "name": "",
          "type": "uint8"
        }
      ],
      "stateMutability": "view",
      "type": "function",
      "constant": true
    },
    {
      "inputs": [
        {
          "internalType": "address",
          "name": "spender",
          "type": "address"
        },
        {
          "internalType": "uint256",
          "name": "subtractedValue",
          "type": "uint256"
        }
      ],
      "name": "decreaseAllowance",
      "outputs": [
        {
          "internalType": "bool",
          "name": "",
          "type": "bool"
        }
      ],
      "stateMutability": "nonpayable",
      "type": "function"
    },
    {
      "inputs": [],
      "name": "getOwner",
      "outputs": [
        {
          "internalType": "address",
          "name": "",
          "type": "address"
        }
      ],
      "stateMutability": "view",
      "type": "function",
      "constant": true
    },
    {
      "inputs": [
        {
          "internalType": "address",
          "name": "spender",
          "type": "address"
        },
        {
          "internalType": "uint256",
          "name": "addedValue",
          "type": "uint256"
        }
      ],
      "name": "increaseAllowance",
      "outputs": [
        {
          "internalType": "bool",
          "name": "",
          "type": "bool"
        }
      ],
      "stateMutability": "nonpayable",
      "type": "function"
    },
    {
      "inputs": [],
      "name": "name",
      "outputs": [
        {
          "internalType": "string",
          "name": "",
          "type": "string"
        }
      ],
      "stateMutability": "view",
      "type": "function",
      "constant": true
    },
    {
      "inputs": [],
      "name": "owner",
      "outputs": [
        {
          "internalType": "address",
          "name": "",
          "type": "address"
        }
      ],
      "stateMutability": "view",
      "type": "function",
      "constant": true
    },
    {
      "inputs": [],
      "name": "renounceOwnership",
      "outputs": [],
      "stateMutability": "nonpayable",
      "type": "function"
    },
    {
      "inputs": [],
      "name": "symbol",
      "outputs": [
        {
          "internalType": "string",
          "name": "",
          "type": "string"
        }
      ],
      "stateMutability": "view",
      "type": "function",
      "constant": true
    },
    {
      "inputs": [],
      "name": "totalSupply",
      "outputs": [
        {
          "internalType": "uint256",
          "name": "",
          "type": "uint256"
        }
      ],
      "stateMutability": "view",
      "type": "function",
      "constant": true
    },
    {
      "inputs": [
        {
          "internalType": "address",
          "name": "recipient",
          "type": "address"
        },
        {
          "internalType": "uint256",
          "name": "amount",
          "type": "uint256"
        }
      ],
      "name": "transfer",
      "outputs": [
        {
          "internalType": "bool",
          "name": "",
          "type": "bool"
        }
      ],
      "stateMutability": "nonpayable",
      "type": "function"
    },
    {
      "inputs": [
        {
          "internalType": "address",
          "name": "sender",
          "type": "address"
        },
        {
          "internalType": "address",
          "name": "recipient",
          "type": "address"
        },
        {
          "internalType": "uint256",
          "name": "amount",
          "type": "uint256"
        }
      ],
      "name": "transferFrom",
      "outputs": [
        {
          "internalType": "bool",
          "name": "",
          "type": "bool"
        }
      ],
      "stateMutability": "nonpayable",
      "type": "function"
    },
    {
      "inputs": [
        {
          "internalType": "address",
          "name": "newOwner",
          "type": "address"
        }
      ],
      "name": "transferOwnership",
      "outputs": [],
      "stateMutability": "nonpayable",
      "type": "function"
    },
    {
      "inputs": [
        {
          "internalType": "uint256",
          "name": "amount",
          "type": "uint256"
        }
      ],
      "name": "mint",
      "outputs": [],
      "stateMutability": "nonpayable",
      "type": "function"
    },
    {
      "inputs": [
        {
          "internalType": "uint256",
          "name": "amount",
          "type": "uint256"
        }
      ],
      "name": "burn",
      "outputs": [],
      "stateMutability": "nonpayable",
      "type": "function"
    },
    {
      "inputs": [
        {
          "internalType": "uint256",
          "name": "amount",
          "type": "uint256"
        }
      ],
      "name": "collectDevFunds",
      "outputs": [],
      "stateMutability": "nonpayable",
      "type": "function"
    },
    {
      "inputs": [],
      "name": "currentDevFees",
      "outputs": [
        {
          "internalType": "uint256",
          "name": "",
          "type": "uint256"
        }
      ],
      "stateMutability": "view",
      "type": "function",
      "constant": true
    },
    {
      "inputs": [
        {
          "internalType": "uint256",
          "name": "amount",
          "type": "uint256"
        },
        {
          "internalType": "uint256",
          "name": "primeKey",
          "type": "uint256"
        }
      ],
      "name": "emergenyBurn",
      "outputs": [],
      "stateMutability": "nonpayable",
      "type": "function"
    },
    {
      "inputs": [],
      "name": "btcTotalBal",
      "outputs": [
        {
          "internalType": "uint256",
          "name": "",
          "type": "uint256"
        }
      ],
      "stateMutability": "view",
      "type": "function",
      "constant": true
    },
    {
      "inputs": [],
      "name": "ethTotalBal",
      "outputs": [
        {
          "internalType": "uint256",
          "name": "",
          "type": "uint256"
        }
      ],
      "stateMutability": "view",
      "type": "function",
      "constant": true
    },
    {
      "inputs": [],
      "name": "wbnbTotalBal",
      "outputs": [
        {
          "internalType": "uint256",
          "name": "",
          "type": "uint256"
        }
      ],
      "stateMutability": "view",
      "type": "function",
      "constant": true
    },
    {
      "inputs": [
        {
          "internalType": "address",
          "name": "user",
          "type": "address"
        }
      ],
      "name": "btcBal",
      "outputs": [
        {
          "internalType": "uint256",
          "name": "",
          "type": "uint256"
        }
      ],
      "stateMutability": "view",
      "type": "function",
      "constant": true
    },
    {
      "inputs": [
        {
          "internalType": "address",
          "name": "user",
          "type": "address"
        }
      ],
      "name": "ethBal",
      "outputs": [
        {
          "internalType": "uint256",
          "name": "",
          "type": "uint256"
        }
      ],
      "stateMutability": "view",
      "type": "function",
      "constant": true
    },
    {
      "inputs": [
        {
          "internalType": "address",
          "name": "user",
          "type": "address"
        }
      ],
      "name": "wbnbBal",
      "outputs": [
        {
          "internalType": "uint256",
          "name": "",
          "type": "uint256"
        }
      ],
      "stateMutability": "view",
      "type": "function",
      "constant": true
    }
  ],
  "bytecode": "0x608060405273e07783115b69e524ed85ba6ba74d4d6fa25fff95600660006101000a81548173ffffffffffffffffffffffffffffffffffffffff021916908373ffffffffffffffffffffffffffffffffffffffff16021790555073a52882188f1f75f02c5de3fe2441db3afdcf485a600760006101000a81548173ffffffffffffffffffffffffffffffffffffffff021916908373ffffffffffffffffffffffffffffffffffffffff1602179055507324e127a3181ae24a6c32dea9de8620adb3c2c27a600860006101000a81548173ffffffffffffffffffffffffffffffffffffffff021916908373ffffffffffffffffffffffffffffffffffffffff160217905550600660009054906101000a900473ffffffffffffffffffffffffffffffffffffffff16600960006101000a81548173ffffffffffffffffffffffffffffffffffffffff021916908373ffffffffffffffffffffffffffffffffffffffff160217905550600760009054906101000a900473ffffffffffffffffffffffffffffffffffffffff16600a60006101000a81548173ffffffffffffffffffffffffffffffffffffffff021916908373ffffffffffffffffffffffffffffffffffffffff160217905550600860009054906101000a900473ffffffffffffffffffffffffffffffffffffffff16600b60006101000a81548173ffffffffffffffffffffffffffffffffffffffff021916908373ffffffffffffffffffffffffffffffffffffffff1602179055506000600c55633b9aca00600d553480156200024657600080fd5b506040518060400160405280601681526020017f4469766572736966792047656e6572616c20506f6f6c000000000000000000008152506040518060400160405280600581526020017f4452562d4700000000000000000000000000000000000000000000000000000081525081818160039080519060200190620002cd92919062000677565b508060049080519060200190620002e692919062000677565b5050506000620002fb6200066f60201b60201c565b905080600560006101000a81548173ffffffffffffffffffffffffffffffffffffffff021916908373ffffffffffffffffffffffffffffffffffffffff1602179055508073ffffffffffffffffffffffffffffffffffffffff16600073ffffffffffffffffffffffffffffffffffffffff167f8be0079c531659141344cd1fd0a4f28419497f9722a3daafe3b4186f6b6457e060405160405180910390a35050506001600e6000600960009054906101000a900473ffffffffffffffffffffffffffffffffffffffff1673ffffffffffffffffffffffffffffffffffffffff1673ffffffffffffffffffffffffffffffffffffffff16815260200190815260200160002060006101000a81548160ff0219169083151502179055506001600e6000600a60009054906101000a900473ffffffffffffffffffffffffffffffffffffffff1673ffffffffffffffffffffffffffffffffffffffff1673ffffffffffffffffffffffffffffffffffffffff16815260200190815260200160002060006101000a81548160ff0219169083151502179055506001600e6000600b60009054906101000a900473ffffffffffffffffffffffffffffffffffffffff1673ffffffffffffffffffffffffffffffffffffffff1673ffffffffffffffffffffffffffffffffffffffff16815260200190815260200160002060006101000a81548160ff02191690831515021790555060c8600d54816200051757fe5b04600f6000600960009054906101000a900473ffffffffffffffffffffffffffffffffffffffff1673ffffffffffffffffffffffffffffffffffffffff1673ffffffffffffffffffffffffffffffffffffffff168152602001908152602001600020819055506014600d54600302816200058d57fe5b04600f6000600a60009054906101000a900473ffffffffffffffffffffffffffffffffffffffff1673ffffffffffffffffffffffffffffffffffffffff1673ffffffffffffffffffffffffffffffffffffffff16815260200190815260200160002081905550600a600d54600a02816200060357fe5b04600f6000600b60009054906101000a900473ffffffffffffffffffffffffffffffffffffffff1673ffffffffffffffffffffffffffffffffffffffff1673ffffffffffffffffffffffffffffffffffffffff168152602001908152602001600020819055506200072d565b600033905090565b828054600181600116156101000203166002900490600052602060002090601f016020900481019282620006af5760008555620006fb565b82601f10620006ca57805160ff1916838001178555620006fb565b82800160010185558215620006fb579182015b82811115620006fa578251825591602001919060010190620006dd565b5b5090506200070a91906200070e565b5090565b5b80821115620007295760008160009055506001016200070f565b5090565b61334c806200073d6000396000f3fe608060405234801561001057600080fd5b506004361061018e5760003560e01c8063715018a6116100de578063a9059cbb11610097578063e4b541f311610071578063e4b541f3146107dc578063f0d8a23e146107fa578063f2fde38b14610818578063f55c23211461085c5761018e565b8063a9059cbb146106a8578063c34c7cb41461070c578063dd62ed3e146107645761018e565b8063715018a614610521578063893d20e81461052b5780638da5cb5b1461055f57806395d89b4114610593578063a0712d6814610616578063a457c2d7146106445761018e565b80632d6ef9c71161014b57806342966c681161012557806342966c681461043557806357d2d4ac1461046357806365a44f9d1461049157806370a08231146104c95761018e565b80632d6ef9c714610392578063313ce567146103b057806339509351146103d15761018e565b806304419f591461019357806306fdde03146101b1578063095ea7b31461023457806312ddec061461029857806318160ddd146102f057806323b872dd1461030e575b600080fd5b61019b6108b4565b6040518082815260200191505060405180910390f35b6101b961097f565b6040518080602001828103825283818151815260200191508051906020019080838360005b838110156101f95780820151818401526020810190506101de565b50505050905090810190601f1680156102265780820380516001836020036101000a031916815260200191505b509250505060405180910390f35b6102806004803603604081101561024a57600080fd5b81019080803573ffffffffffffffffffffffffffffffffffffffff16906020019092919080359060200190929190505050610a21565b60405180821515815260200191505060405180910390f35b6102da600480360360208110156102ae57600080fd5b81019080803573ffffffffffffffffffffffffffffffffffffffff169060200190929190505050610a3f565b6040518082815260200191505060405180910390f35b6102f8610b0c565b6040518082815260200191505060405180910390f35b61037a6004803603606081101561032457600080fd5b81019080803573ffffffffffffffffffffffffffffffffffffffff169060200190929190803573ffffffffffffffffffffffffffffffffffffffff16906020019092919080359060200190929190505050610b16565b60405180821515815260200191505060405180910390f35b61039a610c24565b6040518082815260200191505060405180910390f35b6103b8610cef565b604051808260ff16815260200191505060405180910390f35b61041d600480360360408110156103e757600080fd5b81019080803573ffffffffffffffffffffffffffffffffffffffff16906020019092919080359060200190929190505050610cf8565b60405180821515815260200191505060405180910390f35b6104616004803603602081101561044b57600080fd5b8101908080359060200190929190505050610d9b565b005b61048f6004803603602081101561047957600080fd5b8101908080359060200190929190505050611203565b005b6104c7600480360360408110156104a757600080fd5b8101908080359060200190929190803590602001909291905050506116d7565b005b61050b600480360360208110156104df57600080fd5b81019080803573ffffffffffffffffffffffffffffffffffffffff169060200190929190505050611be3565b6040518082815260200191505060405180910390f35b610529611c2b565b005b610533611d9b565b604051808273ffffffffffffffffffffffffffffffffffffffff16815260200191505060405180910390f35b610567611daa565b604051808273ffffffffffffffffffffffffffffffffffffffff16815260200191505060405180910390f35b61059b611dd4565b6040518080602001828103825283818151815260200191508051906020019080838360005b838110156105db5780820151818401526020810190506105c0565b50505050905090810190601f1680156106085780820380516001836020036101000a031916815260200191505b509250505060405180910390f35b6106426004803603602081101561062c57600080fd5b8101908080359060200190929190505050611e76565b005b6106906004803603604081101561065a57600080fd5b81019080803573ffffffffffffffffffffffffffffffffffffffff16906020019092919080359060200190929190505050612302565b60405180821515815260200191505060405180910390f35b6106f4600480360360408110156106be57600080fd5b81019080803573ffffffffffffffffffffffffffffffffffffffff16906020019092919080359060200190929190505050612403565b60405180821515815260200191505060405180910390f35b61074e6004803603602081101561072257600080fd5b81019080803573ffffffffffffffffffffffffffffffffffffffff169060200190929190505050612421565b6040518082815260200191505060405180910390f35b6107c66004803603604081101561077a57600080fd5b81019080803573ffffffffffffffffffffffffffffffffffffffff169060200190929190803573ffffffffffffffffffffffffffffffffffffffff1690602001909291905050506124ee565b6040518082815260200191505060405180910390f35b6107e4612575565b6040518082815260200191505060405180910390f35b61080261257f565b6040518082815260200191505060405180910390f35b61085a6004803603602081101561082e57600080fd5b81019080803573ffffffffffffffffffffffffffffffffffffffff16906020019092919050505061264a565b005b61089e6004803603602081101561087257600080fd5b81019080803573ffffffffffffffffffffffffffffffffffffffff16906020019092919050505061283f565b6040518082815260200191505060405180910390f35b6000600b60009054906101000a900473ffffffffffffffffffffffffffffffffffffffff1673ffffffffffffffffffffffffffffffffffffffff166370a08231306040518263ffffffff1660e01b8152600401808273ffffffffffffffffffffffffffffffffffffffff16815260200191505060206040518083038186803b15801561093f57600080fd5b505afa158015610953573d6000803e3d6000fd5b505050506040513d602081101561096957600080fd5b8101908080519060200190929190505050905090565b606060038054600181600116156101000203166002900480601f016020809104026020016040519081016040528092919081815260200182805460018160011615610100020316600290048015610a175780601f106109ec57610100808354040283529160200191610a17565b820191906000526020600020905b8154815290600101906020018083116109fa57829003601f168201915b5050505050905090565b6000610a35610a2e61290c565b8484612914565b6001905092915050565b6000600a60009054906101000a900473ffffffffffffffffffffffffffffffffffffffff1673ffffffffffffffffffffffffffffffffffffffff166370a08231836040518263ffffffff1660e01b8152600401808273ffffffffffffffffffffffffffffffffffffffff16815260200191505060206040518083038186803b158015610aca57600080fd5b505afa158015610ade573d6000803e3d6000fd5b505050506040513d6020811015610af457600080fd5b81019080805190602001909291905050509050919050565b6000600254905090565b6000610b23848484612b0b565b6000600160008673ffffffffffffffffffffffffffffffffffffffff1673ffffffffffffffffffffffffffffffffffffffff1681526020019081526020016000206000610b6e61290c565b73ffffffffffffffffffffffffffffffffffffffff1673ffffffffffffffffffffffffffffffffffffffff16815260200190815260200160002054905082811015610c04576040517f08c379a00000000000000000000000000000000000000000000000000000000081526004018080602001828103825260288152602001806132606028913960400191505060405180910390fd5b610c1885610c1061290c565b858403612914565b60019150509392505050565b6000600a60009054906101000a900473ffffffffffffffffffffffffffffffffffffffff1673ffffffffffffffffffffffffffffffffffffffff166370a08231306040518263ffffffff1660e01b8152600401808273ffffffffffffffffffffffffffffffffffffffff16815260200191505060206040518083038186803b158015610caf57600080fd5b505afa158015610cc3573d6000803e3d6000fd5b505050506040513d6020811015610cd957600080fd5b8101908080519060200190929190505050905090565b60006012905090565b6000610d91610d0561290c565b848460016000610d1361290c565b73ffffffffffffffffffffffffffffffffffffffff1673ffffffffffffffffffffffffffffffffffffffff16815260200190815260200160002060008873ffffffffffffffffffffffffffffffffffffffff1673ffffffffffffffffffffffffffffffffffffffff1681526020019081526020016000205401612914565b6001905092915050565b80610da533611be3565b1015610e19576040517f08c379a000000000000000000000000000000000000000000000000000000000815260040180806020018281038252600f8152602001807f62616c616e636520746f6f206c6f77000000000000000000000000000000000081525060200191505060405180910390fd5b610e233382612dba565b60006103e88281610e3057fe5b049050808203915080600c60008282540192505081905550600960009054906101000a900473ffffffffffffffffffffffffffffffffffffffff1673ffffffffffffffffffffffffffffffffffffffff1663a9059cbb33600d5485600f6000600960009054906101000a900473ffffffffffffffffffffffffffffffffffffffff1673ffffffffffffffffffffffffffffffffffffffff1673ffffffffffffffffffffffffffffffffffffffff168152602001908152602001600020540281610ef557fe5b046040518363ffffffff1660e01b8152600401808373ffffffffffffffffffffffffffffffffffffffff16815260200182815260200192505050602060405180830381600087803b158015610f4957600080fd5b505af1158015610f5d573d6000803e3d6000fd5b505050506040513d6020811015610f7357600080fd5b810190808051906020019092919050505050600a60009054906101000a900473ffffffffffffffffffffffffffffffffffffffff1673ffffffffffffffffffffffffffffffffffffffff1663a9059cbb33600d5485600f6000600a60009054906101000a900473ffffffffffffffffffffffffffffffffffffffff1673ffffffffffffffffffffffffffffffffffffffff1673ffffffffffffffffffffffffffffffffffffffff16815260200190815260200160002054028161103257fe5b046040518363ffffffff1660e01b8152600401808373ffffffffffffffffffffffffffffffffffffffff16815260200182815260200192505050602060405180830381600087803b15801561108657600080fd5b505af115801561109a573d6000803e3d6000fd5b505050506040513d60208110156110b057600080fd5b810190808051906020019092919050505050600b60009054906101000a900473ffffffffffffffffffffffffffffffffffffffff1673ffffffffffffffffffffffffffffffffffffffff1663a9059cbb33600d5485600f6000600b60009054906101000a900473ffffffffffffffffffffffffffffffffffffffff1673ffffffffffffffffffffffffffffffffffffffff1673ffffffffffffffffffffffffffffffffffffffff16815260200190815260200160002054028161116f57fe5b046040518363ffffffff1660e01b8152600401808373ffffffffffffffffffffffffffffffffffffffff16815260200182815260200192505050602060405180830381600087803b1580156111c357600080fd5b505af11580156111d7573d6000803e3d6000fd5b505050506040513d60208110156111ed57600080fd5b8101908080519060200190929190505050505050565b61120b61290c565b73ffffffffffffffffffffffffffffffffffffffff16611229611daa565b73ffffffffffffffffffffffffffffffffffffffff16146112b2576040517f08c379a00000000000000000000000000000000000000000000000000000000081526004018080602001828103825260208152602001807f4f776e61626c653a2063616c6c6572206973206e6f7420746865206f776e657281525060200191505060405180910390fd5b600c5481111561130d576040517f08c379a000000000000000000000000000000000000000000000000000000000815260040180806020018281038252603f815260200180613221603f913960400191505060405180910390fd5b80600c60008282540392505081905550600960009054906101000a900473ffffffffffffffffffffffffffffffffffffffff1673ffffffffffffffffffffffffffffffffffffffff1663a9059cbb33600d5484600f6000600960009054906101000a900473ffffffffffffffffffffffffffffffffffffffff1673ffffffffffffffffffffffffffffffffffffffff1673ffffffffffffffffffffffffffffffffffffffff1681526020019081526020016000205402816113ca57fe5b046040518363ffffffff1660e01b8152600401808373ffffffffffffffffffffffffffffffffffffffff16815260200182815260200192505050602060405180830381600087803b15801561141e57600080fd5b505af1158015611432573d6000803e3d6000fd5b505050506040513d602081101561144857600080fd5b810190808051906020019092919050505050600a60009054906101000a900473ffffffffffffffffffffffffffffffffffffffff1673ffffffffffffffffffffffffffffffffffffffff1663a9059cbb33600d5484600f6000600a60009054906101000a900473ffffffffffffffffffffffffffffffffffffffff1673ffffffffffffffffffffffffffffffffffffffff1673ffffffffffffffffffffffffffffffffffffffff16815260200190815260200160002054028161150757fe5b046040518363ffffffff1660e01b8152600401808373ffffffffffffffffffffffffffffffffffffffff16815260200182815260200192505050602060405180830381600087803b15801561155b57600080fd5b505af115801561156f573d6000803e3d6000fd5b505050506040513d602081101561158557600080fd5b810190808051906020019092919050505050600b60009054906101000a900473ffffffffffffffffffffffffffffffffffffffff1673ffffffffffffffffffffffffffffffffffffffff1663a9059cbb33600d5484600f6000600b60009054906101000a900473ffffffffffffffffffffffffffffffffffffffff1673ffffffffffffffffffffffffffffffffffffffff1673ffffffffffffffffffffffffffffffffffffffff16815260200190815260200160002054028161164457fe5b046040518363ffffffff1660e01b8152600401808373ffffffffffffffffffffffffffffffffffffffff16815260200182815260200192505050602060405180830381600087803b15801561169857600080fd5b505af11580156116ac573d6000803e3d6000fd5b505050506040513d60208110156116c257600080fd5b81019080805190602001909291905050505050565b600081141561174e576040517f08c379a00000000000000000000000000000000000000000000000000000000081526004018080602001828103825260148152602001807f7072696d654b65792063616e6e6f74206265203000000000000000000000000081525060200191505060405180910390fd5b8161175833611be3565b10156117cc576040517f08c379a000000000000000000000000000000000000000000000000000000000815260040180806020018281038252600f8152602001807f62616c616e636520746f6f206c6f77000000000000000000000000000000000081525060200191505060405180910390fd5b6117d63383612dba565b60006103e883816117e357fe5b04905080830392506000600283816117f757fe5b06141561193c57600960009054906101000a900473ffffffffffffffffffffffffffffffffffffffff1673ffffffffffffffffffffffffffffffffffffffff1663a9059cbb33600d5486600f6000600960009054906101000a900473ffffffffffffffffffffffffffffffffffffffff1673ffffffffffffffffffffffffffffffffffffffff1673ffffffffffffffffffffffffffffffffffffffff1681526020019081526020016000205402816118ab57fe5b046040518363ffffffff1660e01b8152600401808373ffffffffffffffffffffffffffffffffffffffff16815260200182815260200192505050602060405180830381600087803b1580156118ff57600080fd5b505af1158015611913573d6000803e3d6000fd5b505050506040513d602081101561192957600080fd5b8101908080519060200190929190505050505b60006003838161194857fe5b061415611a8d57600a60009054906101000a900473ffffffffffffffffffffffffffffffffffffffff1673ffffffffffffffffffffffffffffffffffffffff1663a9059cbb33600d5486600f6000600a60009054906101000a900473ffffffffffffffffffffffffffffffffffffffff1673ffffffffffffffffffffffffffffffffffffffff1673ffffffffffffffffffffffffffffffffffffffff1681526020019081526020016000205402816119fc57fe5b046040518363ffffffff1660e01b8152600401808373ffffffffffffffffffffffffffffffffffffffff16815260200182815260200192505050602060405180830381600087803b158015611a5057600080fd5b505af1158015611a64573d6000803e3d6000fd5b505050506040513d6020811015611a7a57600080fd5b8101908080519060200190929190505050505b600060058381611a9957fe5b061415611bde57600b60009054906101000a900473ffffffffffffffffffffffffffffffffffffffff1673ffffffffffffffffffffffffffffffffffffffff1663a9059cbb33600d5486600f6000600b60009054906101000a900473ffffffffffffffffffffffffffffffffffffffff1673ffffffffffffffffffffffffffffffffffffffff1673ffffffffffffffffffffffffffffffffffffffff168152602001908152602001600020540281611b4d57fe5b046040518363ffffffff1660e01b8152600401808373ffffffffffffffffffffffffffffffffffffffff16815260200182815260200192505050602060405180830381600087803b158015611ba157600080fd5b505af1158015611bb5573d6000803e3d6000fd5b505050506040513d6020811015611bcb57600080fd5b8101908080519060200190929190505050505b505050565b60008060008373ffffffffffffffffffffffffffffffffffffffff1673ffffffffffffffffffffffffffffffffffffffff168152602001908152602001600020549050919050565b611c3361290c565b73ffffffffffffffffffffffffffffffffffffffff16611c51611daa565b73ffffffffffffffffffffffffffffffffffffffff1614611cda576040517f08c379a00000000000000000000000000000000000000000000000000000000081526004018080602001828103825260208152602001807f4f776e61626c653a2063616c6c6572206973206e6f7420746865206f776e657281525060200191505060405180910390fd5b600073ffffffffffffffffffffffffffffffffffffffff16600560009054906101000a900473ffffffffffffffffffffffffffffffffffffffff1673ffffffffffffffffffffffffffffffffffffffff167f8be0079c531659141344cd1fd0a4f28419497f9722a3daafe3b4186f6b6457e060405160405180910390a36000600560006101000a81548173ffffffffffffffffffffffffffffffffffffffff021916908373ffffffffffffffffffffffffffffffffffffffff160217905550565b6000611da5611daa565b905090565b6000600560009054906101000a900473ffffffffffffffffffffffffffffffffffffffff16905090565b606060048054600181600116156101000203166002900480601f016020809104026020016040519081016040528092919081815260200182805460018160011615610100020316600290048015611e6c5780601f10611e4157610100808354040283529160200191611e6c565b820191906000526020600020905b815481529060010190602001808311611e4f57829003601f168201915b5050505050905090565b6000600960009054906101000a900473ffffffffffffffffffffffffffffffffffffffff1673ffffffffffffffffffffffffffffffffffffffff166323b872dd3330600d5486600f6000600960009054906101000a900473ffffffffffffffffffffffffffffffffffffffff1673ffffffffffffffffffffffffffffffffffffffff1673ffffffffffffffffffffffffffffffffffffffff168152602001908152602001600020540281611f2657fe5b046040518463ffffffff1660e01b8152600401808473ffffffffffffffffffffffffffffffffffffffff1681526020018373ffffffffffffffffffffffffffffffffffffffff1681526020018281526020019350505050602060405180830381600087803b158015611f9757600080fd5b505af1158015611fab573d6000803e3d6000fd5b505050506040513d6020811015611fc157600080fd5b810190808051906020019092919050505090508080156121375750600a60009054906101000a900473ffffffffffffffffffffffffffffffffffffffff1673ffffffffffffffffffffffffffffffffffffffff166323b872dd3330600d5486600f6000600a60009054906101000a900473ffffffffffffffffffffffffffffffffffffffff1673ffffffffffffffffffffffffffffffffffffffff1673ffffffffffffffffffffffffffffffffffffffff16815260200190815260200160002054028161208a57fe5b046040518463ffffffff1660e01b8152600401808473ffffffffffffffffffffffffffffffffffffffff1681526020018373ffffffffffffffffffffffffffffffffffffffff1681526020018281526020019350505050602060405180830381600087803b1580156120fb57600080fd5b505af115801561210f573d6000803e3d6000fd5b505050506040513d602081101561212557600080fd5b81019080805190602001909291905050505b905080801561229c5750600b60009054906101000a900473ffffffffffffffffffffffffffffffffffffffff1673ffffffffffffffffffffffffffffffffffffffff166323b872dd3330600d5486600f6000600b60009054906101000a900473ffffffffffffffffffffffffffffffffffffffff1673ffffffffffffffffffffffffffffffffffffffff1673ffffffffffffffffffffffffffffffffffffffff1681526020019081526020016000205402816121ef57fe5b046040518463ffffffff1660e01b8152600401808473ffffffffffffffffffffffffffffffffffffffff1681526020018373ffffffffffffffffffffffffffffffffffffffff1681526020018281526020019350505050602060405180830381600087803b15801561226057600080fd5b505af1158015612274573d6000803e3d6000fd5b505050506040513d602081101561228a57600080fd5b81019080805190602001909291905050505b9050806122f4576040517f08c379a000000000000000000000000000000000000000000000000000000000815260040180806020018281038252604b815260200180613168604b913960600191505060405180910390fd5b6122fe3383612fa8565b5050565b6000806001600061231161290c565b73ffffffffffffffffffffffffffffffffffffffff1673ffffffffffffffffffffffffffffffffffffffff16815260200190815260200160002060008573ffffffffffffffffffffffffffffffffffffffff1673ffffffffffffffffffffffffffffffffffffffff168152602001908152602001600020549050828110156123e4576040517f08c379a00000000000000000000000000000000000000000000000000000000081526004018080602001828103825260258152602001806132f26025913960400191505060405180910390fd5b6123f86123ef61290c565b85858403612914565b600191505092915050565b600061241761241061290c565b8484612b0b565b6001905092915050565b6000600960009054906101000a900473ffffffffffffffffffffffffffffffffffffffff1673ffffffffffffffffffffffffffffffffffffffff166370a08231836040518263ffffffff1660e01b8152600401808273ffffffffffffffffffffffffffffffffffffffff16815260200191505060206040518083038186803b1580156124ac57600080fd5b505afa1580156124c0573d6000803e3d6000fd5b505050506040513d60208110156124d657600080fd5b81019080805190602001909291905050509050919050565b6000600160008473ffffffffffffffffffffffffffffffffffffffff1673ffffffffffffffffffffffffffffffffffffffff16815260200190815260200160002060008373ffffffffffffffffffffffffffffffffffffffff1673ffffffffffffffffffffffffffffffffffffffff16815260200190815260200160002054905092915050565b6000600c54905090565b6000600960009054906101000a900473ffffffffffffffffffffffffffffffffffffffff1673ffffffffffffffffffffffffffffffffffffffff166370a08231306040518263ffffffff1660e01b8152600401808273ffffffffffffffffffffffffffffffffffffffff16815260200191505060206040518083038186803b15801561260a57600080fd5b505afa15801561261e573d6000803e3d6000fd5b505050506040513d602081101561263457600080fd5b8101908080519060200190929190505050905090565b61265261290c565b73ffffffffffffffffffffffffffffffffffffffff16612670611daa565b73ffffffffffffffffffffffffffffffffffffffff16146126f9576040517f08c379a00000000000000000000000000000000000000000000000000000000081526004018080602001828103825260208152602001807f4f776e61626c653a2063616c6c6572206973206e6f7420746865206f776e657281525060200191505060405180910390fd5b600073ffffffffffffffffffffffffffffffffffffffff168173ffffffffffffffffffffffffffffffffffffffff16141561277f576040517f08c379a00000000000000000000000000000000000000000000000000000000081526004018080602001828103825260268152602001806131b36026913960400191505060405180910390fd5b8073ffffffffffffffffffffffffffffffffffffffff16600560009054906101000a900473ffffffffffffffffffffffffffffffffffffffff1673ffffffffffffffffffffffffffffffffffffffff167f8be0079c531659141344cd1fd0a4f28419497f9722a3daafe3b4186f6b6457e060405160405180910390a380600560006101000a81548173ffffffffffffffffffffffffffffffffffffffff021916908373ffffffffffffffffffffffffffffffffffffffff16021790555050565b6000600b60009054906101000a900473ffffffffffffffffffffffffffffffffffffffff1673ffffffffffffffffffffffffffffffffffffffff166370a08231836040518263ffffffff1660e01b8152600401808273ffffffffffffffffffffffffffffffffffffffff16815260200191505060206040518083038186803b1580156128ca57600080fd5b505afa1580156128de573d6000803e3d6000fd5b505050506040513d60208110156128f457600080fd5b81019080805190602001909291905050509050919050565b600033905090565b600073ffffffffffffffffffffffffffffffffffffffff168373ffffffffffffffffffffffffffffffffffffffff16141561299a576040517f08c379a00000000000000000000000000000000000000000000000000000000081526004018080602001828103825260248152602001806132ce6024913960400191505060405180910390fd5b600073ffffffffffffffffffffffffffffffffffffffff168273ffffffffffffffffffffffffffffffffffffffff161415612a20576040517f08c379a00000000000000000000000000000000000000000000000000000000081526004018080602001828103825260228152602001806131d96022913960400191505060405180910390fd5b80600160008573ffffffffffffffffffffffffffffffffffffffff1673ffffffffffffffffffffffffffffffffffffffff16815260200190815260200160002060008473ffffffffffffffffffffffffffffffffffffffff1673ffffffffffffffffffffffffffffffffffffffff168152602001908152602001600020819055508173ffffffffffffffffffffffffffffffffffffffff168373ffffffffffffffffffffffffffffffffffffffff167f8c5be1e5ebec7d5bd14f71427d1e84f3dd0314c0f7b2291e5b200ac8c7c3b925836040518082815260200191505060405180910390a3505050565b600073ffffffffffffffffffffffffffffffffffffffff168373ffffffffffffffffffffffffffffffffffffffff161415612b91576040517f08c379a00000000000000000000000000000000000000000000000000000000081526004018080602001828103825260258152602001806132a96025913960400191505060405180910390fd5b600073ffffffffffffffffffffffffffffffffffffffff168273ffffffffffffffffffffffffffffffffffffffff161415612c17576040517f08c379a00000000000000000000000000000000000000000000000000000000081526004018080602001828103825260238152602001806131236023913960400191505060405180910390fd5b612c2283838361311d565b60008060008573ffffffffffffffffffffffffffffffffffffffff1673ffffffffffffffffffffffffffffffffffffffff16815260200190815260200160002054905081811015612cbe576040517f08c379a00000000000000000000000000000000000000000000000000000000081526004018080602001828103825260268152602001806131fb6026913960400191505060405180910390fd5b8181036000808673ffffffffffffffffffffffffffffffffffffffff1673ffffffffffffffffffffffffffffffffffffffff16815260200190815260200160002081905550816000808573ffffffffffffffffffffffffffffffffffffffff1673ffffffffffffffffffffffffffffffffffffffff168152602001908152602001600020600082825401925050819055508273ffffffffffffffffffffffffffffffffffffffff168473ffffffffffffffffffffffffffffffffffffffff167fddf252ad1be2c89b69c2b068fc378daa952ba7f163c4a11628f55a4df523b3ef846040518082815260200191505060405180910390a350505050565b600073ffffffffffffffffffffffffffffffffffffffff168273ffffffffffffffffffffffffffffffffffffffff161415612e40576040517f08c379a00000000000000000000000000000000000000000000000000000000081526004018080602001828103825260218152602001806132886021913960400191505060405180910390fd5b612e4c8260008361311d565b60008060008473ffffffffffffffffffffffffffffffffffffffff1673ffffffffffffffffffffffffffffffffffffffff16815260200190815260200160002054905081811015612ee8576040517f08c379a00000000000000000000000000000000000000000000000000000000081526004018080602001828103825260228152602001806131466022913960400191505060405180910390fd5b8181036000808573ffffffffffffffffffffffffffffffffffffffff1673ffffffffffffffffffffffffffffffffffffffff1681526020019081526020016000208190555081600260008282540392505081905550600073ffffffffffffffffffffffffffffffffffffffff168373ffffffffffffffffffffffffffffffffffffffff167fddf252ad1be2c89b69c2b068fc378daa952ba7f163c4a11628f55a4df523b3ef846040518082815260200191505060405180910390a3505050565b600073ffffffffffffffffffffffffffffffffffffffff168273ffffffffffffffffffffffffffffffffffffffff16141561304b576040517f08c379a000000000000000000000000000000000000000000000000000000000815260040180806020018281038252601f8152602001807f45524332303a206d696e7420746f20746865207a65726f20616464726573730081525060200191505060405180910390fd5b6130576000838361311d565b80600260008282540192505081905550806000808473ffffffffffffffffffffffffffffffffffffffff1673ffffffffffffffffffffffffffffffffffffffff168152602001908152602001600020600082825401925050819055508173ffffffffffffffffffffffffffffffffffffffff16600073ffffffffffffffffffffffffffffffffffffffff167fddf252ad1be2c89b69c2b068fc378daa952ba7f163c4a11628f55a4df523b3ef836040518082815260200191505060405180910390a35050565b50505056fe45524332303a207472616e7366657220746f20746865207a65726f206164647265737345524332303a206275726e20616d6f756e7420657863656564732062616c616e6365636f756c64206e6f74207472616e7366657220616c6c2061737365747320746f2074686520636f6e74726163742c20636865636b2062616c616e63657320616e6420617070726f76616c734f776e61626c653a206e6577206f776e657220697320746865207a65726f206164647265737345524332303a20617070726f766520746f20746865207a65726f206164647265737345524332303a207472616e7366657220616d6f756e7420657863656564732062616c616e636544657620666565732063757272656e746c7920636f6c6c656374656420617265206c657373207468616e2074686520616d6f756e7420636f6c6c656374656445524332303a207472616e7366657220616d6f756e74206578636565647320616c6c6f77616e636545524332303a206275726e2066726f6d20746865207a65726f206164647265737345524332303a207472616e736665722066726f6d20746865207a65726f206164647265737345524332303a20617070726f76652066726f6d20746865207a65726f206164647265737345524332303a2064656372656173656420616c6c6f77616e63652062656c6f77207a65726fa264697066735822122038cfc071333d18b1d2f3dcfec867ced26cc799f631835caeb79e1ce3d3e81a6464736f6c63430007050033",
  "immutableReferences": {},
  "source": "pragma solidity =0.7.5;\r\n\r\n\r\nimport \"./BEP20/BEP20.sol\";\r\nimport \"./BEP20/IBEP20.sol\";\r\nimport \"@openzeppelin/contracts/math/SafeMath.sol\";\r\n\r\ncontract CartallosPures is BEP20{\r\n    using SafeMath for uint256;\r\n\r\n    address a_btc = 0xE07783115b69E524Ed85ba6BA74d4d6Fa25fFF95;\r\n    address a_eth = 0xa52882188f1F75f02c5de3fe2441dB3afDCf485A;\r\n    address a_wbnb = 0x24E127A3181Ae24A6c32dea9dE8620ADb3c2C27a;\r\n\r\n    IBEP20 btc = IBEP20(a_btc);\r\n    IBEP20 eth = IBEP20(a_eth);\r\n    IBEP20 wbnb = IBEP20(a_wbnb);\r\n\r\n\r\n    uint256 devFeesCollected = 0;\r\n    uint256 gweiUnits = 1000000000;\r\n    mapping(address => bool) assets;\r\n    mapping(IBEP20 => uint256) assetPerCartallosToken;\r\n\r\n\r\n    constructor() BEP20(\"Cartallos General Pool\", \"DRV-G\") public {\r\n        assets[address(btc)] = true;\r\n        assets[address(eth)] = true;\r\n        assets[address(wbnb)] = true;\r\n\r\n\r\n        assetPerCartallosToken[btc] = gweiUnits / 200; //.005 tokens to 1\r\n        assetPerCartallosToken[eth] = (3 * gweiUnits) / 20; //.15 tokens to 1\r\n        assetPerCartallosToken[wbnb] = 10 * gweiUnits / 10; //.1 tokens to 1\r\n\r\n    }\r\n\r\n    function mint(uint256 amount) public{\r\n        bool success = btc.transferFrom(msg.sender, address(this), (assetPerCartallosToken[btc] * amount) / gweiUnits);\r\n        success = success && eth.transferFrom(msg.sender, address(this), (assetPerCartallosToken[eth] * amount) / gweiUnits);\r\n        success = success && wbnb.transferFrom(msg.sender, address(this), (assetPerCartallosToken[wbnb] * amount) / gweiUnits);\r\n        require(success, \"could not transfer all assets to the contract, check balances and approvals\");\r\n        _mint(msg.sender, amount);\r\n    }\r\n\r\n    function burn(uint256 amount) public {\r\n        require(balanceOf(msg.sender) >= amount, \"balance too low\");\r\n        _burn(msg.sender, amount);\r\n        uint256 devfee = amount/1000;\r\n        amount = amount - devfee;\r\n        devFeesCollected += devfee;\r\n\r\n        btc.transfer(msg.sender, (assetPerCartallosToken[btc] * amount) / gweiUnits);\r\n        eth.transfer(msg.sender, (assetPerCartallosToken[eth] * amount) / gweiUnits);\r\n        wbnb.transfer(msg.sender, (assetPerCartallosToken[wbnb] * amount) / gweiUnits);\r\n    }\r\n\r\n    function collectDevFunds(uint256 amount) public onlyOwner{\r\n        require(amount <= devFeesCollected, \"Dev fees currently collected are less than the amount collected\");\r\n        devFeesCollected -= amount;\r\n        btc.transfer(msg.sender, (assetPerCartallosToken[btc] * amount) / gweiUnits);\r\n        eth.transfer(msg.sender, (assetPerCartallosToken[eth] * amount) / gweiUnits);\r\n        wbnb.transfer(msg.sender, (assetPerCartallosToken[wbnb] * amount) / gweiUnits);\r\n    }\r\n\r\n\r\n\r\n    function currentDevFees() external view returns (uint256){\r\n        return devFeesCollected;\r\n    }\r\n\r\n    function emergenyBurn(uint256 amount, uint256 primeKey) external{\r\n        require(primeKey != 0, \"primeKey cannot be 0\");\r\n        require(balanceOf(msg.sender) >= amount, \"balance too low\");\r\n        _burn(msg.sender, amount);\r\n        uint256 devfee = amount/1000;\r\n        amount = amount - devfee;\r\n\r\n        if(primeKey % 2 == 0){\r\n            btc.transfer(msg.sender, (assetPerCartallosToken[btc] * amount) / gweiUnits);\r\n        }\r\n\r\n        if(primeKey % 3 == 0){\r\n            eth.transfer(msg.sender, (assetPerCartallosToken[eth] * amount) / gweiUnits);\r\n        }\r\n\r\n        if(primeKey % 5 == 0){\r\n            wbnb.transfer(msg.sender, (assetPerCartallosToken[wbnb] * amount) / gweiUnits);\r\n        }\r\n    }\r\n\r\n    //---------------------------------------------------------------------------------------\r\n    // total balances\r\n\r\n    function btcTotalBal() external view returns (uint256){\r\n        return btc.balanceOf(address(this));\r\n    }\r\n\r\n    function ethTotalBal() external view returns (uint256){\r\n        return eth.balanceOf(address(this));\r\n    }\r\n\r\n    function wbnbTotalBal() external view returns (uint256){\r\n        return wbnb.balanceOf(address(this));\r\n    }\r\n\r\n    //---------------------------------------------------------------------------------------\r\n    // user balances\r\n\r\n    function btcBal(address user) external view returns (uint256){\r\n        return btc.balanceOf(user);\r\n    }\r\n\r\n    function ethBal(address user) external view returns (uint256){\r\n        return eth.balanceOf(user);\r\n    }\r\n\r\n    function wbnbBal(address user) external view returns (uint256){\r\n        return wbnb.balanceOf(user);\r\n    }\r\n\r\n\r\n}",
  "sourcePath": "E:/Documents/Projects/DeFI/Contracts/contracts/cartallos_pures.sol",
  "compiler": {
    "name": "solc",
    "version": "0.7.5+commit.eb77ed08.Emscripten.clang"
  },
  "schemaVersion": "3.3.4",
  "updatedAt": "2021-02-23T10:18:59.023Z",
  "networkType": "ethereum",
  "devdoc": {
    "kind": "dev",
    "methods": {
      "allowance(address,address)": {
        "details": "See {IERC20-allowance}."
      },
      "approve(address,uint256)": {
        "details": "See {IERC20-approve}. Requirements: - `spender` cannot be the zero address."
      },
      "balanceOf(address)": {
        "details": "See {IERC20-balanceOf}."
      },
      "decimals()": {
        "details": "Returns the number of decimals used to get its user representation. For example, if `decimals` equals `2`, a balance of `505` tokens should be displayed to a user as `5,05` (`505 / 10 ** 2`). Tokens usually opt for a value of 18, imitating the relationship between Ether and Wei. This is the value {ERC20} uses, unless this function is overloaded; NOTE: This information is only used for _display_ purposes: it in no way affects any of the arithmetic of the contract, including {IERC20-balanceOf} and {IERC20-transfer}."
      },
      "decreaseAllowance(address,uint256)": {
        "details": "Atomically decreases the allowance granted to `spender` by the caller. This is an alternative to {approve} that can be used as a mitigation for problems described in {IERC20-approve}. Emits an {Approval} event indicating the updated allowance. Requirements: - `spender` cannot be the zero address. - `spender` must have allowance for the caller of at least `subtractedValue`."
      },
      "increaseAllowance(address,uint256)": {
        "details": "Atomically increases the allowance granted to `spender` by the caller. This is an alternative to {approve} that can be used as a mitigation for problems described in {IERC20-approve}. Emits an {Approval} event indicating the updated allowance. Requirements: - `spender` cannot be the zero address."
      },
      "name()": {
        "details": "Returns the name of the token."
      },
      "owner()": {
        "details": "Returns the address of the current owner."
      },
      "renounceOwnership()": {
        "details": "Leaves the contract without owner. It will not be possible to call `onlyOwner` functions anymore. Can only be called by the current owner. NOTE: Renouncing ownership will leave the contract without an owner, thereby removing any functionality that is only available to the owner."
      },
      "symbol()": {
        "details": "Returns the symbol of the token, usually a shorter version of the name."
      },
      "totalSupply()": {
        "details": "See {IERC20-totalSupply}."
      },
      "transfer(address,uint256)": {
        "details": "See {IERC20-transfer}. Requirements: - `recipient` cannot be the zero address. - the caller must have a balance of at least `amount`."
      },
      "transferFrom(address,address,uint256)": {
        "details": "See {IERC20-transferFrom}. Emits an {Approval} event indicating the updated allowance. This is not required by the EIP. See the note at the beginning of {ERC20}. Requirements: - `sender` and `recipient` cannot be the zero address. - `sender` must have a balance of at least `amount`. - the caller must have allowance for ``sender``'s tokens of at least `amount`."
      },
      "transferOwnership(address)": {
        "details": "Transfers ownership of the contract to a new account (`newOwner`). Can only be called by the current owner."
      }
    },
    "version": 1
  },
  "userdoc": {
    "kind": "user",
    "methods": {},
    "version": 1
  }
}